:0400000080312528FE
:100008007E1480314E01161C0A280B2813280C1C5C
:100018000E280F28132882310422803123280B1F31
:10002800162817282328961E1A281B2823288C1ED2
:100038001E281F28232881318021803123287E1003
:10004800090080312728823112228031A6008231AE
:1000580013228031A700FB01FC01FD01A401A501C9
:100068007E104001813101294301901A3C283D2826
:10007800A1287608F700F8017708F0007808F10061
:100088000530F2000030F3008031E22080313B304F
:10009800700784000130713D8038850000084301F5
:1000A8008F007608F700F8017708F0007808F1006B
:1000B8000530F2000030F3008031E22080313C301E
:1000C800700784000130713D8038850000084301C5
:1000D80090007608F700F8017708F0007808F1003A
:1000E8000530F2000030F3008031E22080313D30ED
:1000F800700784000130713D803885000008430195
:1001080092007608F700F8017708F0007808F10007
:100118000530F2000030F3008031E22080313E30BB
:10012800700784000130713D803885000008430164
:100138008D0090160130F900A228F901790808000D
:100148004001980199019A013B3092007030930068
:10015800FF30940033307E01B8002030C300BB303C
:10016800CE00B901C401CF014F15BA01C501D001B4
:100178003730BB00F030C600FF30D1003F30BC0044
:10018800F030C700FF30D2000E307D01C6001630B7
:10019800C7001230900008307E019F000C307D01AE
:1001A800C50007307E019C00BD01BE01BF01C8012A
:1001B800C901CA01D301D401D5010800F401F50130
:1001C800701CE728E828EC287208F4077308F53D46
:1001D8000130F235F30D890BED280130F136F00CC2
:1001E800890BF22870087104031DFB28FC28E428F9
:1001F8007508F1007408F00008008131B6218131DA
:100208008B170B174001240803190B290C291129F6
:100218008131C62181314001A4012508031915291E
:100228001629062933308131A62181314001A501E3
:10023800062980312528EF3401340034003438345D
:100248000034003400340034003400340034003406
:10025800003400340034003400340A3402340034EA
:1002680000340034003400340034003400344034A6
:1002780004341034013400340034043410340134AC
:10028800003440341434103401340034003414344D
:10029800103401340034643404341034003400342D
:1002A8006A3401340034003400340034003400343B
:1002B8000034003400340034003400340034003496
:1002C800003400340034003400340034FF304B0173
:1002D8009D009C0170309F001D08FC001C08FB005D
:1002E80094304001A0000130A1004E018C129616F6
:1002F80090304B019E0008007C084B019D007B0854
:100308009C0040012008210403198B298C2991297C
:1003180021088A0020080A0081314E018C12080049
:1003280001304001A6020030A73B26082704031D20
:100338009E299F29A5290130A400FF30A600FF307F
:10034800A7000800FA00F601803138208131003A10
:100358000319AF29B029B5297A08F00082310A2299
:10036800813108008131FE2181318031A420813121
:1003780081316A2181318131EF2181318131D5216A
:10038800813108007D03031DCA29CC290130CD29FC
:100398000030FD007D0C4001031C181103181815CE
:1003A80008004E010C100B100E30F0000230F10066
:1003B8008131F82181314E011614080040012208CC
:1003C80023040319E829E929EE2923088A002208C9
:1003D8000A00813108004E0197108D1043018F01EA
:1003E800900192018D01080071084001A300700876
:1003F800A200080051019101053093009201080004
:100408004E010C108131E22182310800700843014D
:100418008C00080001304001A5000800FF34FF34BB
:020000040001F9
:04000E00CF3FE73FBA
:04001400FF3FFF3F6C
:00000001FF
