:0400000080312528FE
:100008007E1480314E01161C0A280B2813280C1C5C
:100018000E280F2813288131BF21803123280B1F78
:10002800162817282328961E1A281B2823288C1ED2
:100038001E281F28232881316A21803123287E1019
:100048000900803127288131CC218031A4008131F9
:10005800CD218031A500FB01FC01FD01A201A30116
:100068007E104001813100294301901A3C283D2827
:10007800A1287608F700F8017708F0007808F10061
:100088000530F2000030F3008031E1208031A030EB
:10009800700784000130713D8038850000084301F5
:1000A8008F007608F700F8017708F0007808F1006B
:1000B8000530F2000030F3008031E1208031A130BA
:1000C800700784000130713D8038850000084301C5
:1000D80090007608F700F8017708F0007808F1003A
:1000E8000530F2000030F3008031E1208031A23089
:1000F800700784000130713D803885000008430195
:1001080092007608F700F8017708F0007808F10007
:100118000530F2000030F3008031E1208031A33057
:10012800700784000130713D803885000008430164
:100138008D0090160130F900A228F901790808000D
:100148004001980199019A013B3092007030930068
:10015800FF30940033307E01B8002030C300BB303C
:10016800CE00B901C401CF01BA01C501D0013730B1
:10017800BB00F030C600FF30D1003F30BC00F0308B
:10018800C700FF30D20012307D0190000E30C6004B
:100198001630C70008307E019F000C307D01C50075
:1001A80007307E019C00BD01BE01BF01C801C90125
:1001B800CA01D301D401D5010800F401F501701C6E
:1001C800E628E728EB287208F4077308F53D0130A4
:1001D800F235F30D890BEC280130F136F00C890B60
:1001E800F12870087104031DFA28FB28E328750814
:1001F800F1007408F00008008131792181318B17F2
:100208000B17FD01FC017C0803190B290C29102987
:1002180081315B218131FC017D08031914291529DD
:100228000729333081314B218131FD010729803184
:100238002528AA340134003400343834003400341A
:100248000034003400340034003400340034003406
:10025800003400340034C534013400340034003430
:100268000034003400340034003401304001A4026A
:100278000030A53B24082504031D432944294A29A5
:100288000130FC00FF30A400FF30A5000800FA0090
:10029800F601803138208131003A03195429552953
:1002A8005A297A08F0008131C521813108007B0381
:1002B800031D5F296129013062290030FB007B0C96
:1002C8004001031C181103181815080040012208E2
:1002D8002304031970297129762923088A00220822
:1002E8000A0081314E018C1208008131B921813117
:1002F8008031A42081318131AA2181318131862147
:10030800813108004E010C100B14C930F000013087
:10031800F1008131B32181314E01161408004001EA
:1003280020082104031999299A299F2921088A005C
:1003380020080A00813108000034043410340134E4
:100348000034643404341034003400344E019710FF
:100358008D1043018F01900192018D0108007108F1
:100368004001A1007008A00008005101910105306A
:100378009300920108004E010C10813193218131C4
:100388000800700843018C0008000130FD000800D7
:04039800FF34FF34FB
:020000040001F9
:04000E00CF3FE73FBA
:04001400FF3FFF3F6C
:00000001FF
