:0400000080313128F2
:100008007E1480314E01161C0A280B2813280C1C5C
:100018000E280F2813288231CC2280312F280B1F5D
:10002800162817282F28961E1A281B2823288C1EC6
:100038001E281F28232882312F2280312F28971C21
:10004800262827282F288D1C2A282B282F2880315E
:10005800C32080312F287E10090080313328B43026
:100068008400823085001200AF001200B000120038
:10007800B1001200B2001200B3001200B400FB017C
:10008800FC01A001A101A201A301A401A501A601EF
:10009800A701A8017E10400181316E294301901A01
:1000A80056285728C02881304001A5007708F80055
:1000B800F9017808F1007908F2000530F300003002
:1000C800F4008131AF218031EA30710784000130BA
:1000D800723D80388500000843018F007708F800DA
:1000E800F9017808F1007908F2000530F3000030D2
:1000F800F4008131AF218031EB3071078400013089
:10010800723D803885000008430190007708F800A8
:10011800F9017808F1007908F2000530F3000030A1
:10012800F4008131AF218031EC3071078400013057
:10013800723D803885000008430192007708F80076
:10014800F9017808F1007908F2000530F300003071
:10015800F4008131AF218031ED3071078400013026
:10016800723D80388500000843018D0090164E01CD
:1001780097100130FA00C128FA017A0808004E01E8
:100188008D10F0014001220823040319CC28CD2842
:10019800F228813024060319D228D328DA28200827
:1001A80086002108870043010C08810001304001C6
:1001B800A0070030A13D24080319E328E428EA2811
:1001C80020088600210887000108F0000130A202FB
:1001D8000030A33B700843018C000A2981302406B3
:1001E8000319F728F8280529813025060319FD2861
:1001F800FE280529200886002108870043010C08ED
:10020800810081304001A5004E019710080040018F
:10021800980199019A013B30920070309300FF30A9
:10022800940033307E01B8002030C300BB30CE00CC
:10023800B901C401CF014F15BA01C501D00137304A
:10024800BB00F030C600FF30D1003F30BC00F030BA
:10025800C700FF30D2000E307D01C6001630C7003F
:100268001230900008307E019F000C307D01C500DF
:1002780007307E019C00BD01BE01BF01C801C90154
:10028800CA01D301D401D50108007108F6008130F4
:1002980040012506031D512952296D294E01971445
:1002A80076084001A000A1017208FF3EF400FF306B
:1002B800733DF5007408A2007508A3008130A400FE
:1002C8004230A50020088600210887000108430164
:1002D8008C0008008231662281318B170B17400190
:1002E8003208B9003108B8003008B7002F08B60046
:1002F80027080319802981298629823176228131AC
:100308004001A7013630B50081319021813140018B
:10031800A8017C2980313128F701803152208131B0
:10032800003A031998299929AE2982318522813109
:10033800003A0319A029A129992940013508F1009B
:100348000430F2000030F3008131492181318231DB
:10035800AC2281310800F501F601711CB429B529D8
:10036800B9297308F5077408F63D0130F335F40D23
:10037800890BBA290130F236F10C890BBF297108B3
:100388007204031DC829C929B1297608F200750825
:10039800F10008005534023400340034523400347B
:1003A800AC340234003400340034003449340134AD
:1003B8000034003400340034003400340034003495
:1003C80085340234BA3402340034003440340434FE
:1003D800103401340034003404341034013400344F
:1003E80040341434103401340034003414341034DC
:1003F80001340034643404341034003400341934C3
:100408000234003400340034003400340034003442
:100418000034003400340034003400340034003434
:1004280000340034003400340034FF304B019D00A8
:100438009C0170309F001D08FC001C08FB00433025
:100448004001A9000230AA004E018C129616903085
:100458004B019E0008007C084B019D007B089C0016
:10046800400129082A0403193A2A3B2A402A2A0863
:100478008A0029080A0082314E018C1208000130D6
:100488004001B3020030B43B33083404031D4D2A45
:100498004E2A542A0130A700FF30B300FF30B400C1
:1004A80008004E0197108D1043018F0190019201B1
:1004B8008D010030F100F2008231BA228231400110
:1004C800A50108008231C622823181310B21823197
:1004D800823119228231823155228231823192222F
:1004E8008231080040012603031D7B2A7D2A013042
:1004F8007E2A0030A600260C031C181103181815B4
:100508000800813040012506031D8B2A8C2A8F2A7A
:100518000130F100902AF101710808004E010C1019
:100528000B10D230F1000230F2008231C022823149
:100538004E011614080040012B082C040319A52AA3
:10054800A62AAB2A2C088A002B080A008231080048
:10055800430190124E0197108D104001A50108002B
:100568002934673477346434FF34FF347208400127
:10057800AE007108AD00080072084001AC007108B7
:10058800AB00080051019101053093009201080069
:100598004E010C1082319F22823108000130400147
:0405A800A80008009F
:020000040001F9
:04000E00CF3FE73FBA
:04001400FF3FFF3F6C
:00000001FF
