:0400000080312528FE
:100008007E1480314E01161C0A280B2813280C1C5C
:100018000E280F28132882315422803123280B1FE1
:10002800162817282328961E1A281B2823288C1ED2
:100038001E281F2823288131CA21803123287E10B9
:100048000900803127284230840082308500120060
:10005800A0001200A1001200A2001200A3001200CA
:10006800A4001200A500FB01FC01FD01AE01AF01D7
:100078007E1040018031EA284301901A442845281F
:10008800A9287608F700F8017708F0007808F10049
:100098000530F2000030F30081312C2180318530A9
:1000A800700784000130713D8038850000084301E5
:1000B8008F007608F700F8017708F0007808F1005B
:1000C8000530F2000030F30081312C218031863078
:1000D800700784000130713D8038850000084301B5
:1000E80090007608F700F8017708F0007808F1002A
:1000F8000530F2000030F30081312C218031873047
:10010800700784000130713D803885000008430184
:1001180092007608F700F8017708F0007808F100F7
:100128000530F2000030F30081312C218031883015
:10013800700784000130713D803885000008430154
:100148008D0090160130F900AA28F90179080800F5
:100158004001980199019A013B3092007030930058
:10016800FF30940033307E01B8002030C300BB302C
:10017800CE00B901C401CF014F15BA01C501D001A4
:100188003730BB00F030C600FF30D1003F30BC0034
:10019800F030C700FF30D2000E307D01C6001630A7
:1001A800C7001230900008307E019F000C307D019E
:1001B800C50007307E019C00BD01BE01BF01C8011A
:1001C800C901CA01D301D401D50108008231002236
:1001D80080318B170B1740012308AD002208AC00B3
:1001E8002108AB002008AA002E080319FC28FD28C6
:1001F80002298231102280314001AE012A30FA00F2
:1002080081314B2180314001AF01F8288031252808
:100218007008F5007208F4007108F30025297508C4
:1002280086008701010843018C004E018D1C1D29A1
:100238001E2919298D100130F5070130F30200300D
:10024800F43B73087404031D2A292B291329080079
:10025800F401F501701C3129322936297208F40796
:100268007308F53D0130F235F30D890B372901305C
:10027800F136F00C890B3C2970087104031D4529DF
:1002880046292E297508F1007408F0000800F601C7
:10029800803140208131003A0319532954296829B3
:1002A8008131F0218131003A03195B295C295429F5
:1002B8007A08F0000430F1000030F20081310C219E
:1002C800813182315E2281310800393402340034B0
:1002D8000034403400345E340234003400340034D6
:1002E80000340C3401340034003400340034003459
:1002F800003400340034F034013400340034003465
:1003080000344034043410340134003400340434EC
:1003180010340134003440341434103401340034BF
:100328000034143410340134003464340434103488
:1003380000340034B4340134003400340034003460
:100348000034003400340034003400340034003405
:1003580000340034003400340034003400340034F5
:10036800FF304B019D009C0170309F001D08FC0070
:100378001C08FB00DE304001A6000130A7004E013A
:100388008C12961690304B019E0008007C084B0199
:100398009D007B089C004001260827040319D529E5
:1003A800D629DB2927088A0026080A0081314E0150
:1003B8008C12080001304001A4020030A53B24083B
:1003C8002504031DE829E929EF290130AE00FF3093
:1003D800A400FF30A50008004301901EF429F52968
:1003E800FD2903104E018D1C03140030093DF00057
:1003F800FE29F0017008080082314E2282318031D6
:10040800AC2082318131B42182318231392282316A
:1004180082311F22823108007D03031D142A162A07
:100428000130172A0030FD007D0C4001031C181113
:100438000318181508004E010C100B105A30F00064
:100448000230F1008231482282314E011614080030
:100458004001280829040319322A332A382A29088E
:100468008A0028080A00823108004E0197108D1072
:1004780043018F01900192018D01080029346734EE
:1004880077346434FF34FF3471084001A9007008E0
:10049800A80008005101910105309300920108005D
:1004A8004E010C1082312C228231080001304001AB
:0A04B800AF00080043019012080095
:020000040001F9
:04000E00CF3FE73FBA
:04001400FF3FFF3F6C
:00000001FF
