:0400000080312528FE
:100008007E1480314E01161C0A280B2813280C1C5C
:100018000E280F28132882312322803123280B1F12
:10002800162817282328961E1A281B2823288C1ED2
:100038001E281F28232881319C21803123287E10E7
:1000480009008031272882312D228031A700823192
:100058002E228031A800FC01FD01A401A501A60102
:100068007E10400181313D294301901A3C283D28EA
:10007800A1287608F700F8017708F0007808F10061
:100088000530F2000030F300813102218031573011
:10009800700784000130713D8038850000084301F5
:1000A8008F007608F700F8017708F0007808F1006B
:1000B8000530F2000030F3008131022180315830E0
:1000C800700784000130713D8038850000084301C5
:1000D80090007608F700F8017708F0007808F1003A
:1000E8000530F2000030F3008131022180315930AF
:1000F800700784000130713D803885000008430195
:1001080092007608F700F8017708F0007808F10007
:100118000530F2000030F3008131022180315A307D
:10012800700784000130713D803885000008430164
:100138008D0090160130F900A228F901790808000D
:100148004001980199019A013B3092007030930068
:10015800FF30940033307E01B8002030C300BB303C
:10016800CE00B901C401CF014F15BA01C501D001B4
:100178003730BB00F030C600FF30D1003F30BC0044
:10018800F030C700FF30D2000E307D01C6001630B7
:10019800C7001230900008307E019F000C307D01AE
:1001A800C50007307E019C00BD01BE01BF01C8012A
:1001B800C901CA01D301D401D50108007008F500AE
:1001C8007208F4007108F300FB287508860087019F
:1001D800010843018C004E018D1CF328F428EF28F8
:1001E8008D100130F5070130F3020030F43B73083D
:1001F8007404031D00290129E9280800F401F50108
:10020800701C072908290C297208F4077308F53DA2
:100218000130F235F30D890B0D290130F136F00C60
:10022800890B122970087104031D1B291C29042934
:100238007508F1007408F00008000E340234003428
:1002480000343834003400340034003400340034CE
:100258000034E23400340034003400340034003414
:1002680000340034003400340034003400340034E6
:1002780000348131D52181318B170B172930FB00D0
:1002880040012508031949294A2944298131E521D2
:1002980081314001A5017B30FA008131B0218131E3
:1002A8004429803125284034043410340134003482
:1002B800003404341034013400344034143410341D
:1002C80001340034003414341034013400346434FC
:1002D80004341034003400348634013400340034DB
:1002E8000034003400340034003400340034003466
:1002F8000034003400340034003400340034003456
:1003080000340034FF304B019D009C0170309F0089
:100318001D08FD001C08FC00C3304001A00001308E
:10032800A1004E018C12961690304B019E000800D9
:100338007D084B019D007C089C0040012008210499
:100348000319A729A829AD2921088A0020080A002D
:1003580081314E018C120800F6018031382081313C
:10036800003A0319B829B929C2297A30F0000430B3
:10037800F1000030F2008031E220813108000130C4
:100388004001A7020030A83B27082804031DCD29F7
:10039800CE29D4290130A500FF30A700FF30A800DE
:1003A800080082311D2281318031A42081318131C0
:1003B8008621813182310E2281318131F4218131CE
:1003C800080040012403031DEA29EC290130ED2926
:1003D8000030A400240C031C181103181815080079
:1003E8004E010C100B102930F0000230F100823160
:1003F800172281314E0116140800400122082304F7
:100408000319072A082A0D2A23088A0022080A0045
:10041800823108004E0197108D1043018F01900121
:1004280092018D01080071084001A3007008A20024
:1004380008005101910105309300920108004E0116
:100448000C10823101228231080001304001A600DF
:060458000800FF34FF3430
:020000040001F9
:04000E00CF3FE73FBA
:04001400FF3FFF3F6C
:00000001FF
